S01500005350495F55534152545F444D412E7372656304
S113000078060120F1020000ED020000ED0200007C
S1130010ED020000ED020000ED020000000000000F
S1130020000000000000000000000000ED020000DD
S1130030ED02000000000000ED020000ED020000EF
S1130040ED020000ED020000ED020000ED020000F0
S1130050ED020000ED020000ED020000ED020000E0
S1130060ED020000ED020000ED020000ED020000D0
S1130070ED020000ED020000ED020000ED020000C0
S1130080ED020000ED020000ED020000ED020000B0
S1130090ED020000ED020000ED020000ED020000A0
S11300A0ED020000ED020000ED020000ED02000090
S11300B0ED020000ED020000ED020000C90C00009A
S11300C0D50C0000E10C0000ED0C0000F90C000060
S11300D0ED020000ED020000ED020000ED02000060
S11300E0ED020000ED02000000000000000000002E
S11300F000000000510E0000ED020000ED020000BF
S1130100ED020000ED020000ED020000ED0200002F
S1130110ED020000ED020000ED020000ED0200001F
S1130120ED020000ED020000ED020000ED0200000F
S1130130ED020000ED020000ED020000ED020000FF
S1130140ED020000ED020000ED020000ED020000EF
S1130150ED020000ED020000ED020000ED020000DF
S1130160ED020000ED020000ED020000ED020000CF
S1130170ED020000ED020000ED020000ED020000BF
S1130180ED020000ED020000ED020000ED020000AF
S1130190ED020000ED020000ED020000ED0200009F
S11301A0ED020000ED020000ED020000ED0200008F
S11301B0ED020000ED020000ED020000ED0200007F
S11301C0ED020000ED020000ED020000ED0200006F
S11301D0ED020000ED020000ED020000ED0200005F
S11301E0ED020000ED020000ED020000ED0200004F
S11301F0ED020000ED020000ED020000ED0200003F
S1130200ED020000ED020000ED020000ED0200002E
S1130210ED020000ED020000ED020000ED0200001E
S1130220ED020000ED020000ED020000ED0200000E
S1130230ED020000ED020000ED020000ED020000FE
S1130240ED020000ED020000ED020000ED020000EE
S1130250ED020000ED020000ED020000ED020000DE
S1130260ED02000010B5054C237833B9044B13B1EB
S11302700448AFF300800123237010BD70000020F8
S113028000000000103100000C4B43B10C480D4934
S113029010B5AFF300800C48036823B910BD0A48B9
S11302A0036833B97047094B002BF7D0BDE8104001
S11302B01847064B002BF5D0184700BF000000007C
S11302C01031000074000020103100000000000014
S11302D008B5034B9847034B9847034B984708BD11
S11302E0D10700008D030000DD130000FEE70000CD
S11302F008B5154B154A9A4209D0134B134A03E02B
S1130300116819600433043211498B42F8D3114B3C
S113031002E000221A6004330F4A9342F9D30F4BD0
S11303200F4A22F07F029A60D3F8882042F47002C8
S1130330C3F88820BFF34F8FBFF36F8F094B9847E3
S1130340094B9847FEE700BF000000201031000071
S113035064000020700000207406002000ED00E01E
S113036000000000091400000513000008B5024B4A
S11303705B6803B1984708BD8C00002008B5024BA8
S11303809B6803B1984708BD8C00002010B5064C4B
S113039000212046054B98472368054A1A602368C4
S11303A0044A5A60002010BD8C000020990C000003
S11303B06D0300007D03000070B506460D4614462B
S11303C0012100200B4B9847012100200A4B98473C
S11303D031460020094B984729460020084B98478E
S11303E021460020074B984701210020064B9847DF
S11303F0002070BDE90B0000AD0C0000C90B00002B
S1130400D90B0000050C00005D0C000038B5054652
S113041014460E4B43F80C1F194600200C4B98470A
S1130420002108460B4B9847012100200A4B9847AE
S113043029460020094B984721460020084B98473D
S113044001210020074B9847002038BD8C00002074
S1130450D90B0000E90B0000AD0C0000C90B000033
S1130460050C00005D0C00000122014B1A7070475E
S11304709C00002030B583B00446094D01A92846EC
S1130480084B98472846084B98472046074B9847FF
S113049082B221460198064B984703B030BD00BF95
S11304A054020020B10A0000850A0000651B000008
S11304B0F5070000F8B505460E4608460D4B98476B
S11304C007460024A74213D90122315D28460A4B6E
S11304D0984710B901350134F4E7084B9847006890
S11304E0074B984701460748074B98470120F8BD3A
S11304F00020F8BD651B00000D040000FD13000082
S1130500511B000064280000C915000070B51A4B87
S1130510984770B93220194CA04705463220A047AD
S1130520064617492846174B984760B101242046D0
S113053070BD154B98470068144B98470146144802
S1130540144B9847E6E70C2229463046124B98474D
S1130550044628B9114B98473046114B9847E6E7B3
S1130560094B98470068094B984701460D48094BC9
S113057098470124DBE700BF8D03000051140000FD
S1130580A0280000B5040000FD130000511B00006A
S113059080280000C9150000B903000069040000A8
S11305A075040000B0280000104B93F8442002F0BA
S11305B0FE0242F0010283F8442093F8322002F054
S11305C0F00242F0030283F8322093F8452002F04F
S11305D0FE0242F0010283F8452093F8322002F033
S11305E00F0242F0300283F832207047008000414D
S11305F0064B4022C3F89C204322C3F88C20044AB3
S1130600536943F480535361704700BF001C00409A
S11306100008004008B5054B9847002204490548E6
S1130620054B9847054B984708BD00BFF1050000EE
S11306300030004030020020390A0000A905000003
S1130640284B01225A619A6002F180429A624FF06B
S11306504041996293F8402002F0FE0242F0010208
S113066083F8402093F8302002F0F00242F00302B5
S113067083F8302002225A619A6002F180429A6221
S1130680996293F8412002F0FE0242F0010283F8DD
S1130690412093F8302002F00F0242F0300283F838
S11306A030204FF480225A600F4A9A6202F10042CD
S11306B004329A6293F8522002F0FB0283F852202B
S11306C093F8522002F0FE0242F0010283F8522015
S11306D093F8392002F0F00242F0020283F8392044
S11306E0704700BF0080004100000240064B4022DA
S11306F0C3F8A0204322C3F88C20044A536943F46E
S113070000535361704700BF001C004000080040C4
S113071008B5044B984704490448054B9847054BD2
S1130720984708BDED060000003400403C0200205C
S11307305D08000041060000104B93F8C82102F048
S1130740FE0242F0010283F8C82193F8B42102F0BA
S1130750F00242F0020283F8B42193F8C92102F0B6
S1130760FE0242F0010283F8C92193F8B42102F099
S11307700F0242F0200283F8B42170470080004148
S1130780064B4022C3F814214322C3F88C20044AA8
S1130790136A43F008031362704700BF001C004053
S11307A00008004008B5054B984700220449054855
S11307B0054B9847054B984708BD00BF81070000CB
S11307C0000C004354020020390A000039070000DD
S11307D008B5044B9847044B9847044B9847044B7F
S11307E0984708BD210B0000150600001107000002
S11307F0A507000070B50D461646044668B151B110
S1130800012034220649074B98472368324629467B
S11308102046984770BD0020F3E70020F1E700BFB1
S1130820CC280000DD0A000070B50D4616460446CB
S113083068B151B101203D220649074B98476368CE
S1130840324629462046984770BD0020F3E7002031
S1130850F1E700BFCC280000DD0A000038B50D46E2
S11308600446C0B1A9B1012040220C490C4B984761
S1130870204640F8045F29460A4B9847002807DBC6
S11308804FF40043A382084B2361084BE36000202C
S113089038BD0020E8E70020E6E700BFE0280000BC
S11308A0DD0A00008910000031090000F50800008D
S11308B030B585B00C46054698B181B10120B3220C
S11308C009490A4B98472368019363680293A36814
S11308D0039301A9281D064B984705B030BD00209D
S11308E0EDE70020EBE700BFE0280000DD0A000090
S11308F00512000070B584B00E4615460446A322C6
S11309000849003018BF0120074B98470023029381
S11309100196039501A9A4F10C00044B984704B077
S113092070BD00BFE0280000DD0A0000B10800002F
S113093070B584B00E461546044687220849003037
S113094018BF0120074B9847029600230193039593
S113095001A9A4F10C00044B984704B070BD00BF7A
S1130960E0280000DD0A0000B1080000F8B50E46DA
S11309701746054608B311B31ABB0020F1221249E9
S1130980124B984705F108042046114B984700285C
S1130990F8D00025715D20460E4B984720460C4B3D
S11309A098470028FAD00135BD42F3D320460A4BBC
S11309B098470028FAD02846F8BD0020DEE700203A
S11309C0DCE70120DAE700BFFC280000DD0A0000B4
S11309D06B1000005D100000751000002DE9F0415F
S11309E00F4690460546C8B1D1B1DAB900204FF49C
S11309F086720D490D4B9847002605F108042046E0
S1130A000B4B98470028F8D020460A4B9847B85516
S1130A1001364645F1D33046BDE8F0810020E6E7D3
S1130A200020E4E70120E2E7FC280000DD0A0000E2
S1130A307F1000006310000038B50D460446A0B1D5
S1130A4089B1012034220A490A4B9847294604F106
S1130A500800094B9847034618B9084A6260084AD7
S1130A602260184638BD0020ECE70020EAE700BF0A
S1130A70FC280000DD0A00001D100000DD09000054
S1130A806D09000010B5044653220649003018BF12
S1130A900120054B984704F10800044B98470020B7
S1130AA010BD00BFFC280000DD0A00004910000052
S1130AB038B50C46054650B139B1012069220549C3
S1130AC0054B98472560002038BD0020F6E700203C
S1130AD0F4E700BFFC280000DD0A000000B900BEF6
S1130AE0704700000346064A126822B1044A10689F
S1130AF00344136070470349014A1160F6E700BFDD
S1130B00A0000020780601204FF0FF3070474FF41A
S1130B1000534B600020704701207047002070474D
S1130B2010B5094A13889BB21380084B9847084BA9
S1130B309847084B98470820074CA047074B98470D
S1130B4040F6F770A04710BD00400041510D000071
S1130B50650D0000450D0000050D0000690D000045
S1130B6008B5174A138C03F01F0303EB43018800F5
S1130B7014490844128C12F4807F05D1104A128C57
S1130B8012F4007F0BD108BD1A0102F1824202F572
S1130B902042012182F84E104368984708BD1A018B
S1130BA002F1824202F52042022182F84E1003EB48
S1130BB0430303FA01F2034B9B589847E3E700BF52
S1130BC000A00041A4000020024B03EB0010816050
S1130BD00020704760020020024B03EB00104160CC
S1130BE00020704760020020054A0001135A9BB29E
S1130BF023F4806343EA812189B2115200207047B3
S1130C006002002030B4144C0201A3189D68A35A5A
S1130C10C3F30123A25A12F4006F06D001FA03F4BD
S1130C202C440D4A02EB001294600B4C0201A518EF
S1130C306D68A25A12F4806F05D001FA03F32B44B5
S1130C4004EB0012536089B2034B03EB00104180A4
S1130C50002030BC704700BF6002002010B40C4C70
S1130C600201A35A9BB243F00103A352094C031D92
S1130C701B01E25842F00202E25029B1012303FAB7
S1130C8000F022691043206100205DF8044B704796
S1130C906002002000A0004101EB41018A00024BE8
S1130CA01344036000207047A4000020054A00019B
S1130CB0135A9BB223F4006343EAC12189B211524F
S1130CC0002070476002002008B5014B984708BD1A
S1130CD0610B000008B5014B984708BD610B00008B
S1130CE008B5014B984708BD610B000008B5014BDE
S1130CF0984708BD610B000008B5014B984708BD33
S1130D00610B000010F0010F08D00B4A0B4B1A6264
S1130D100A4B5A6843F6FD731A42F9D110F0080FD2
S1130D2008D0074A054BDA62044B5A6843F6FD7350
S1130D301A42F9D1704700BF06010100001C0040AF
S1130D40040101000122014B5A7170470008004060
S1130D50034BDA6902F47C52DA6101221A74704797
S1130D600014004070470000364A136A23F00F0352
S1130D7043F004031362334B5A6843F6FD731A427B
S1130D80F9D1304B5B6813F0040FFAD12E4B0022DB
S1130D901A772E4A9A622C4B93F82C3013F0100FCA
S1130DA0F9D10022284B83F82020274B93F82C30CC
S1130DB013F0040FF9D10222234B1A77224B93F834
S1130DC02C3013F0020FF9D11F4B5A6A5A621E4B92
S1130DD093F82C3013F0080FF9D180221A4B83F8C2
S1130DE02020194B93F82C3013F0040FF9D1164B33
S1130DF093F8203013F0010F1DD0134B1B6903F43B
S1130E001063B3F5106FF8D10E4B5B68002BFBD168
S1130E100C4A136A23F00F0343F006031362094BD1
S1130E205A6843F6FD731A42F9D1064B5B6813F016
S1130E30040FFAD17047044B1B6913F4807FFAD076
S1130E40E2E700BF001C0040001000400000010465
S1130E5000B583B00D4B9B78DBB20193019B13F07B
S1130E60020F06D00A4B1B681BB1084A506898470A
S1130E7009E0019B13F0010F05D0054B5B6813B12A
S1130E80024A5068984703B05DF804FB0000024131
S1130E906006002070B489B006466C460C4D0FCD38
S1130EA00FC495E80F0084E80F00002007280AD833
S1130EB008AB03EB800353F8203CB34201D001306C
S1130EC0F4E7C0B200E0002009B070BC704700BF76
S1130ED01829000008B50D4B98470023012B0BD8A7
S1130EE003EB4302D1000A4A0A4492F820209042BC
S1130EF009D00133DBB2F1E740F247220549002073
S1130F00054B98470023184608BD00BF950E000006
S1130F1018290000A4290000DD0A000038B50446A1
S1130F203C4B9847E36913F0010F22D100EB4003D7
S1130F30DA00394B13445A6A02F01C02E36913F0D5
S1130F40030FFBD1236813F0020F0BD0236823F0A7
S1130F5002032360E36913F0030FFBD1E36913F089
S1130F60020FFBD142F001022260E36913F0030F88
S1130F70FBD1E36913F0010FFBD100EB4003DA006E
S1130F80254B13445B6A2360E36913F0030FFBD121
S1130F9000EB4003DA00204B13449B6A6360E3696F
S1130FA013F01F0FFBD142000244D1001A4B0B4433
S1130FB0DA6AA2605B6A13F4005F0AD113F4C04FCB
S1130FC007D100EB4003DA00134B13441B8EA381BB
S1130FD00FE042000244D1000F4B0B44198EA2894A
S1130FE061F30C02A28193F83220A38962F34F3398
S1130FF0A381094A43001D18E9000D46114491F8E4
S11310003310A1732A4492F8343084F8303000202D
S113101038BD00BFD50E00001829000038B50C46B5
S11310200546BB220549003018BF0120044B9847F0
S11310302C602046034B984738BD00BFA42900000C
S1131040DD0A00001D0F00000268136843F002036C
S11310501360D36913F0030FFBD1704703689962DF
S113106070470368986AC0B270470368187E00F03E
S1131070010070470368187EC0F34000704703689E
S1131080187EC0F38000704770B506460C460846CB
S1131090584B98470023002B68D00025002E71D0B0
S11310A0002C6DD0012040F63F125349534B984712
S11310B0002D00F09C80E36913F0010F1DD12B6813
S11310C003F01C02E36913F0030FFBD1236813F050
S11310D0020F0BD0236823F002032360E36913F0AB
S11310E0030FFBD1E36913F0020FFBD142F00102BD
S11310F02260E36913F0030FFBD1E36913F0010FDE
S1131100FBD134602B6803F01C03082B3CD0002C6B
S113111069D0002D65D0012040F609123649374BBD
S113112098472B6823F4817323F001032360E36958
S113113013F0030FFBD16B6823F4383323F41073DB
S113114043F400336360E36913F0170FFBD12B7B87
S113115023736B7B84F830306B6813F0070F44D132
S113116001233371EB89F380002070BD012802D084
S11311700133DBB28FE703EB0315214B1D448DE7ED
S1131180002090E700208EE74CB335B3012040F6F1
S11311901D121949194B98472B6823F4817323F0C6
S11311A001032360E36913F0030FFBD16B6823F49D
S11311B0083323F4107343F4003343F4107363606F
S11311C0E36913F0170FFBD1AB6863626B7B84F8A0
S11311D03030E369002BFCD1BEE70020D7E70020C4
S11311E0D5E7002098E7002096E70223B9E76FF0DF
S11311F00C0070BD950E0000A4290000DD0A00005B
S113120090290000F0B587B007460D4604680B68C6
S113121001934B6802930023039304930679B8B1B6
S1131220A4B1012040F6A3223449354B9847E36921
S113123013F0070F5FD1E36913F0030FFBD12368A9
S113124013F0020F1ED16FF0130052E01846E9E7C5
S11312500020E7E700222BE091F801E040EA0E20AD
S11312600231019101320392A06213F0800F32D156
S11312700020002837DB0398AB68984202D3049A15
S1131280934230D9237EDBB213F0040FE2D0A16A7B
S1131290029A4AB1501C02901170012E04D9901C7C
S11312A00290C1F307215170049A01320492012281
S11312B0002ADAD1039A04999142D6D3F88813F01C
S11312C0010FD2D001990029CCD0481C0190087894
S11312D0012EC1D8C6E74FF6FF73638380232376BC
S11312E06FF01200C5E7237E13F0030FFBD0032336
S11312F0237607B0F0BD6FF00300FAE7A4290000DD
S1131300DD0A000008B5034B9847034B98470020BB
S113131008BD00BFD10200000D05000058B908B592
S11313200B4611461846054B9847002800DB08BDBC
S11313304FF0FF3008BD4FF0FF30704795130000A9
S1131340013802280BD808B50B4611461846054B40
S11313509847002800DB08BD4FF0FF3008BD4FF070
S1131360FF307047B913000070B50646064D2B6870
S113137000219868054CA0472B6800215868A047B5
S1131380034B1E6070BD00BF000000201916000052
S11313902402002008B5064B1B6833B10A460146F7
S11313A092B21846034B984708BD002008BD00BF01
S11313B0240200202908000008B5064B1B6833B13D
S11313C00A46014692B21846034B984708BD0020CE
S11313D008BD00BF24020020F507000010B5044C2E
S11313E02046044B98472046034B984710BD00BF46
S11313F030020020850A000069130000014B1868C0
S1131400704700BF0000002070B50D4E0D4CA41BAA
S1131410A4100025A54209D10B4E0C4C01F068FE26
S1131420A41BA4100025A54205D170BD56F8253093
S113143098470135EEE756F8253098470135F2E72D
S1131440FC300000FC300000FC30000000310000E3
S1131450024B0146186800F059B800BF0000002094
S113146002440346934200D1704703F8011BF9E795
S113147038B50546002945D051F8043C0C1F002B13
S1131480B8BFE41800F018FE1F4A1368104633B9B9
S1131490636014602846BDE8384000F00EBEA342E5
S11314A00CD921686218934204BF1A685B686360B0
S11314B004BF521822600460ECE713465A680AB16C
S11314C0A242FAD919685818A0420BD120680144E5
S11314D0581882421960DDD1106852685A6001447C
S11314E01960D7E702D90C232B60D3E720682118B1
S11314F08A4204BF11685268626004BF09182160FF
S11315005C60C7E738BD00BF2802002070B5CD1C61
S113151025F0030508350C2D38BF0C25002D064693
S113152001DBA94203D90C233360002070BD00F015
S1131530C3FD234A1468214691B9224C23681BB980
S1131540304600F059F820602946304600F054F83F
S1131550431C26D10C233360304600F0AEFDE4E793
S11315600B685B1B1AD40B2B0FD90B60CD50CC1816
S1131570304600F0A2FD04F10B00231D20F007000B
S1131580C31A1BD05A42E25070BD8C420DBF63682F
S11315904B686360136018BF0C46E9E70C46496862
S11315A0CAE7C41C24F00304A04205D0211A304623
S11315B000F022F80130CDD02560D9E770BD00BF1E
S11315C0280200202C0200200FB40A4B13B51C681B
S11315D024B1A36913B9204600F080FC05AB049A3A
S11315E0A1680193204600F091FD02B0BDE81040CF
S11315F004B070470000002038B5064C00230546AF
S113160008462360FFF76EFA431C02D1236803B136
S11316102B6038BD7006002000294FF480630CBF96
S11316200222002200F000B82DE9F7431D46514B79
S11316301E6804460F46904626B1B36913B9304676
S113164000F04CFC4C4B9C4252D17468B8F1020F30
S113165006D0B8F1010F00F28980002DC0F2868017
S11316602146304600F0D0FB616B41B104F14403E4
S1131670994202D03046FFF7FBFE00236363002348
S1131680A3616360A3891B0603D521693046FFF774
S1131690EFFEA38923F44A6323F00303B8F1020F96
S11316A0A3815DD001AB6A462146304600F0A0FC20
S11316B0A3891843A0812DBB009D2846FFF7C8FECF
S11316C0074600284ED1DDF80090A9453CD14FF0E3
S11316D0FF30A38943F00203A3810023A36004F134
S11316E04703236023610123636103B0BDE8F083F2
S11316F0224B9C4201D1B468A8E7214B9C4208BF0D
S1131700F468A3E7002FD8D0B36913B9304600F0CA
S1131710E5FBB8F1010F08BFA389276004BF43F0BC
S11317200103A381A389276113F0080065611BD01D
S113173013F0010018BF6D424FF000031DBFA360FA
S1131740A5611846A560D0E74846FFF781FE074625
S11317500028BCD0A38943F08003A3814D46D3E77E
S11317600020B6E7A946F5E7A060BEE74FF0FF30DA
S1131770BBE700BF000000207C3000009C3000006C
S11317805C30000010B50446084611468E2800F26D
S11317902F81DFE810F038018F009100930095004D
S11317A0970099009B009D00A100A300A700A90039
S11317B0AB00AD002D01AF00B100B300B500B70020
S11317C0BD00BF00C500C700C900CB00CD00D100DB
S11317D0D500D700D900DB00DD00DF00E100E30025
S11317E02D012D012D012D012D012D012D012D0185
S11317F0E700EB002D012D012D012D012D012D01FF
S11318002D012D012D012D012D012D012D01ED00A5
S11318100701EF00F1002D012D012D01F3002D0131
S11318202D012D01F5002D012D01F9002D012D01B2
S1131830FB002D012D012D012D012D012D012D0167
S11318402D012D012D01FD002D01FF0001010301DA
S11318502D012D0125012D012D012D012D012D011C
S11318602D012D012D011301050109010B010D01AC
S11318700F012D01110115011901E900C1002B010E
S1131880B900CF00BB009F00A5002901F7002D017E
S11318901701C3001D011B012D012D012D012D0177
S11318A02D01D3002D012D012D01E50027011F017C
S11318B021012301554810BD554810BD554810BDA0
S11318C0554810BD554810BD554810BD554810BD6C
S11318D0554810BD554810BD554810BD554810BD5C
S11318E0554810BD554810BD554810BD554810BD4C
S11318F0554810BD554810BD554810BD554810BD3C
S1131900554810BD554810BD554810BD554810BD2B
S1131910554810BD554810BD554810BD554810BD1B
S1131920554810BD554810BD554810BD554810BD0B
S1131930554810BD554810BD554810BD554810BDFB
S1131940554810BD554810BD554810BD554810BDEB
S1131950554810BD554810BD554810BD554810BDDB
S1131960554810BD554810BD554810BD554810BDCB
S1131970554810BD554810BD554810BD554810BDBB
S1131980554810BD554810BD554810BD554810BDAB
S1131990554810BD554810BD554810BD554810BD9B
S11319A0554810BD554810BD554810BD554810BD8B
S11319B0554810BD554810BD554810BD554810BD7B
S11319C0554810BD554810BD554810BD554810BD6B
S11319D0554810BD554810BD554810BD554810BD5B
S11319E0554810BD554810BD554810BD554810BD4B
S11319F0002B14BF1A46224600F0BCF8524B0028B4
S1131A0008BF184610BD514810BD00BFCC290000C6
S1131A10D6290000F0290000002A0000182A00003E
S1131A20222A00003C2A00004E2A0000602A0000FE
S1131A30792A0000892A0000952A0000B22A0000B1
S1131A40C42A0000D52A0000E72A0000F32A000077
S1131A500B2B0000172B0000292B0000382B000053
S1131A60482B0000552B0000742B0000832B000032
S1131A70942B0000B82B0000D62B0000F42B0000A0
S1131A80142C00002B2C00003A2C0000492C0000E0
S1131A905D2C0000752C0000832C0000902C0000AD
S1131AA0A62C0000B52C0000C12C0000F02C000076
S1131AB0012D00001C2D00002F2D0000452D0000DD
S1131AC04E2D0000652D00006D2D00007A2D0000C4
S1131AD08F2D0000A32D0000BB2D0000CA2D000097
S1131AE0DB2D0000EE2D0000FA2D0000132E000067
S1131AF0272E0000422E00005A2E0000742E0000F3
S1131B007C2E0000AC2E0000CB2E0000EA2E00003C
S1131B10012F0000142F00002D2F0000442F00007F
S1131B205A2F00007B2F0000932F0000AF2F0000DE
S1131B30C22F0000D82F0000EC2F00000E30000050
S1131B403430000045300000C1300000C4290000DA
S1131B500146034800231A460068FFF713BE00BF7E
S1131B6000000020034613F8012B002AFBD1181AA9
S1131B700138704700207047F8B50E4614460546F4
S1131B8018B183690BB900F0A9F9214B9C422AD101
S1131B906C68A369A360A3891A072ED5236963B36C
S1131BA023692068C01A6369F6B29842374604DB99
S1131BB02146284600F028F928BBA368013BA3600E
S1131BC023685A1C22601E7063690130984204D055
S1131BD0A389DB0719D50A2E17D12146284600F020
S1131BE013F990B10FE00B4B9C4201D1AC68D0E7E4
S1131BF0094B9C4208BFEC68CBE72146284600F01D
S1131C000DF80028CCD04FF0FF373846F8BD00BFA0
S1131C107C3000009C3000005C300000324B70B51A
S1131C201D6806460C4625B1AB6913B9284600F079
S1131C3055F92E4B9C420FD16C68B4F90C309AB212
S1131C4015072CD4D00611D40922326043F0400386
S1131C50A3814FF0FF3070BD254B9C4201D1AC688D
S1131C60EBE7244B9C4208BFEC68E6E7510712D52A
S1131C70616B41B104F14403994202D03046FFF74D
S1131C80F7FB00236363A38923F02403A3810023C8
S1131C90636023692360A38943F00803A381236954
S1131CA04BB9A38903F42073B3F5007F03D0214615
S1131CB0304600F0C1F9A28912F001030CD00023D0
S1131CC0A36063695B42A361236953B9B4F90C301F
S1131CD013F08000BAD170BD920758BF6369A36046
S1131CE0F2E70020F7E700BF000000207C3000008E
S1131CF09C3000005C3000008A892DE9F0410546E3
S1131D0010070C465AD44B68002B05DC0B6C002BD7
S1131D1002DC0020BDE8F081E66A002EF9D0002341
S1131D2012F480522F682B6033D0606DA3895A0758
S1131D3005D56368C01A636B0BB1236CC01A00230A
S1131D400246E66A216A2846B047431CA38906D1A5
S1131D5029681D294BD82B4ACA40D60747D50022EB
S1131D606260D9042269226004D5421C01D12B6827
S1131D7003B96065616B2F600029CAD004F1440384
S1131D80994202D02846FFF773FB00206063BDE848
S1131D90F081216A01232846B047411CC6D12B6833
S1131DA0002BC3D01D2B01D0162B01D12F60B0E71F
S1131DB0A38943F04003A381BDE8F0810F69002F9C
S1131DC0A7D093070E6808BF4B690F6018BF0023A4
S1131DD0A6EB07088B60B8F1000F9ADD43463A463C
S1131DE0216AA66A2846B047002807DCA38943F085
S1131DF04003A3814FF0FF30BDE8F0810744A8EB16
S1131E000008E8E70100402038B50B6905460C4698
S1131E10DBB118B183690BB900F060F80C4B9C423C
S1131E2009D16C68B4F90C307BB121462846BDE871
S1131E303840FFF761BF074B9C4201D1AC68F1E722
S1131E40054B9C4208BFEC68ECE7002038BD00BF9E
S1131E507C3000009C3000005C300000014900F040
S1131E60A9B800BF091E0000002310B50446036092
S1131E704360836081814366C281036143618361FE
S1131E80194608225C30FFF7EBFA054B6362054BF9
S1131E90A362054BE362054B2462236310BD00BFBC
S1131EA06526000087260000BF260000E326000008
S1131EB070B54A1E682555430E4605F17401FFF7B7
S1131EC025FB044640B1002180E842000C30A060AC
S1131ED005F16802FFF7C4FA204670BD836910B5A6
S1131EE0044633BB8364C3640365124B124A1B6804
S1131EF08262984204BF0123836100F01FF860608E
S1131F00204600F01BF8A060204600F017F80022DD
S1131F10E06004216068FFF7A7FF01220921A0689F
S1131F20FFF7A2FF02221221E068FFF79DFF0123C1
S1131F30A36110BDC02900005D1E0000F8B51C4B54
S1131F401E68B369074613B93046FFF7C7FF483622
S1131F50B4687368013B03D5336833B13668F7E777
S1131F60B4F90C506DB16834F4E704213846FFF736
S1131F709FFF30600028F1D10C233B6004462046CB
S1131F80F8BD4FF6FF73E3810123A38165662560E5
S1131F90A560656025616561A5610822294604F193
S1131FA05C00FFF75DFA6563A563A564E564E6E795
S1131FB0C02900002DE9F8438046894600F1480411
S1131FC0002614B93046BDE8F883A5686768013F68
S1131FD001D52468F5E7AB89012B07D9B5F90E3093
S1131FE0013303D029464046C84706436835EEE727
S1131FF070B50E46B1F90E10002990B014461D4676
S113200007DA00232B60B3891A0610D44FF48063D7
S11320100EE001AA00F08CFB0028F2DB029A02F425
S11320207042A2F500535A425A412A60EEE7402317
S11320300020236010B070BD8B8973B59D070646E0
S11320400C4607D504F14703236023610123636130
S113205002B070BD01AB6A46FFF7CAFF009905469E
S11320603046FFF753FA48B9B4F90C309A05EFD467
S113207023F0030343F00203A381E3E70D4BB362B0
S1132080A389206043F08003A381009B6361019BCB
S113209020615BB1B4F90E10304600F05BFB28B14F
S11320A0A38923F0030343F00103A381A3891D4300
S11320B0A581CDE75D1E0000704770479368013B22
S11320C0002B10B4936008DA9469A34202DBCBB20C
S11320D00A2B02D110BCFFF74FBD1368581C1060C7
S11320E01970C8B210BC7047F8B506460F461446BE
S11320F0D518AC4201D1002007E03A4614F8011B80
S11321003046FFF7DBFF431CF3D1F8BD2DE9F04F58
S11321109DB00C4617460393064618B183690BB964
S1132120FFF7DCFE7C4B9C4257D17468A3891807E7
S11321305DD52369002B5AD00023099320238DF801
S1132140293030238DF82A304FF0010BB84645462C
S113215015F8013B002B55D1B8EB070A0BD05346B9
S11321603A4621463046FFF7BFFF013000F0C480F5
S1132170099B5344099398F80030002B00F0BC806D
S113218000234FF0FF3204930793059206938DF8D2
S113219053301A9305222978604800F001FB05F1B9
S11321A00108049B002831D1D90644BF20228DF8B0
S11321B053201A0744BF2B228DF853202A782A2A49
S11321C02CD0079A00210A20A846013598F800303F
S11321D0303B092B6DD971B326E0514B9C4201D1A0
S11321E0B468A3E74F4B9C4208BFF4689EE72146BE
S11321F03046FFF713FD00289ED04FF0FF301DB08E
S1132200BDE8F08F252BA7D0A846A0E7434A801A43
S11322100BFA00F0184304904546BBE7039A111DDE
S113222012680391002A01DB079204E0524243F052
S113223002030792049398F800302E2B10D198F8DB
S113224001302A2B08F1010137D1039B1A1D1B68A9
S11322500392002BB8BF4FF0FF3308F10208059337
S1132260314D98F800100322284600F099FA40B145
S11322704023401B03FA00F0049B0343049308F13A
S1132280010898F8001029488DF82810062208F152
S1132290010700F085FA002834D0254B03BB039BCB
S11322A0073323F0070308330393099B4B44099333
S11322B04CE700FB0232012186E700230593184610
S11322C00A258846013198F80020303A092A03D9B2
S11322D0002BC5D00590C3E705FB00200123F0E7E0
S11322E003AB00932246134B04A93046AFF300809E
S11322F0B0F1FF3F8146D8D1A3895B063FF57DAF9E
S113230009987CE703AB009322460A4B04A93046A4
S113231000F088F8ECE700BF7C300000BC3000001F
S11323209C3000005C300000C2300000C630000069
S113233000000000E92000002DE9F04791461F4607
S11323408A680B69DDF820809342B8BF1346C9F848
S1132350003091F8432006460C4612B10133C9F807
S113236000302368990642BFD9F800300233C9F817
S11323700030256815F0060507D104F1190AE36851
S1132380D9F800209B1A9D4229DB94F84330226837
S1132390003318BF012392062ED404F143023946B8
S11323A03046C047013021D02368E568D9F80020C1
S11323B003F00603042B08BFAD1AA36822690CBFFF
S11323C025EAE57500259342C4BF9B1AED184FF02A
S11323D000091A344D451BD10020BDE8F0870123C4
S11323E0524639463046C047013003D14FF0FF30E2
S11323F0BDE8F0870135C2E7E1185A1C302081F8A6
S11324004300224494F8451082F843100233C4E791
S11324100123224639463046C0470130E6D009F14F
S11324200109D7E72DE9F04317460A7E85B06E2AE5
S1132430984606460C460C9B01F1430E00F0BC8006
S11324401AD8632A2ED00AD8002A00F0C880582A45
S113245000F08A8004F1420584F842202AE0642ACC
S113246001D0692AF6D121681A6811F0800F23D0AF
S1132470111D1960136827E0732A00F0B48008D88E
S11324806F2A2AD0702AE5D10A6842F020020A6035
S113249003E0752A21D0782ADCD1782284F84520FB
S11324A06E4964E01A6801F14205111D1960136850
S11324B084F842300123A3E011F0400F02F104013B
S11324C01960D7D0B2F90030002B03DA2D225B4219
S11324D084F8432062490A2217E02068196810F042
S11324E0800F03D0081D18600B6806E010F0400F41
S11324F001F104001860F7D00B8859496F2A14BF02
S11325000A220822002084F843006568A560002D93
S1132510C0F29C80206820F004002060002B3FD192
S1132520002D40F095807546082A0BD12368DA0700
S113253008D5236962689A42DEBF302305F8013C5E
S113254005F1FF35AEEB05032361CDF800803B4672
S113255003AA21463046FFF7EFFE013055D14FF074
S1132560FF3005B0BDE8F08381F845203C4922687E
S1132570186812F0800F00F104051D6001D0036893
S113258002E05506FBD50388D00744BF42F0200281
S113259022601BB9226822F0200222601022B1E7D7
S11325A07546B3FBF2F002FB1033CB5C05F8013D3A
S11325B003460028F5D1B7E708681A68496910F09E
S11325C0800F04D0101D18601368196007E010F024
S11325D0400F02F1040018601368F6D0198000233C
S11325E023617546B1E71A68111D196015686268A0
S11325F00021284600F0D4F808B1401B60606368ED
S11326002361002384F843309FE723692A4639462F
S11326103046C0470130A2D023689B0707D5002568
S113262004F11909E368039A9B1A9D4205DBE068EB
S1132630039B9842B8BF184693E701234A4639469C
S11326403046C04701308AD00135EBE7002BA7D1D3
S11326500B7884F8423004F1420565E7DE3000006F
S1132660CD30000010B50C46B1F90E1000F0E8F8BA
S11326700028ABBF636DA3891B1823F48053ACBF40
S11326806365A38110BD2DE9F0411F468B89DB05ED
S113269005460C46164605D502230022B1F90E1054
S11326A000F068F8A389B4F90E1023F48053A381D1
S11326B032463B462846BDE8F04100F017B810B555
S11326C00C46B1F90E1000F055F8431CA38915BF50
S11326D0606523F4805343F48053A38118BFA3811E
S11326E010BDB1F90E1000F013B8000038B5074C56
S11326F0054608461146002222601A46FEF720FECF
S1132700431C02D1236803B12B6038BD700600203E
S113271038B5064C0023054608462360FEF7F4F955
S1132720431C02D1236803B12B6038BD700600201E
S113273038B5074C00230546084611462360FEF7CA
S1132740E6F9431C02D1236803B12B6038BD00BFF6
S11327507006002038B5064C002305460846236061
S1132760FEF7DAF9431C02D1236803B12B6038BDAC
S11327707006002038B5074C05460846114600226D
S113278022601A46FEF7CAF9431C02D1236803B13A
S11327902B6038BD7006002000000000000000001F
S11327A001F0FF01102A2BDB10F0070F08D010F8FE
S11327B0013B013A8B422DD010F0070F42B3F6D102
S11327C0F0B441EA012141EA014122F007047FF01B
S11327D000070023F0E80256083C85EA010586EA72
S11327E0010685FA47F5A3FA87F586FA47F6A5FAAE
S11327F087F68EB9EED1F0BC01F0FF0102F00702BA
S113280032B110F8013B013A83EA010313B1F8D164
S11328100020704701387047002D06BF3546033845
S1132820073815F0010F07D1013015F4807F02BF7E
S1132830013015F4C03F0130F0BC0138704700BFCF
S113284038B5074C054608461146002222601A4650
S1132850FEF764FD431C02D1236803B12B6038BD2D
S113286070060020646D615F6D656D736574282961
S1132870206661696C65643A2025730A00000000D3
S1132880646D615F6D656D6F72795F696E697428DF
S113289029206661696C65643A2025730A0000008A
S11328A068656C6C6F20776F726C642100000000A7
S11328B0646D615F6D656D63707928292066616957
S11328C06C65643A2025730A000000002E2E2F68E0
S11328D0616C2F7372632F68616C5F696F2E630084
S11328E02E2E2F68616C2F7372632F68616C5F7377
S11328F070695F6D5F73796E632E63002E2E2F688F
S1132900616C2F7372632F68616C5F75736172748D
S11329105F73796E632E6300003000400034004022
S11329200020014100400141000000430004004335
S113293000080043000C00430000000004001040A5
S113294000000300020070002BF6000000000000ED
S113295007000000040010400000030002007000A3
S11329602BF6000000000000000000000000000042
S11329700000000000000000000000000000000053
S11329800000000000000000000000000000000043
S11329900C0020000000020000000000FE00FF0107
S11329A0010000002E2E2F68706C2F736572636F08
S11329B06D2F68706C5F736572636F6D2E630000BA
S11329C00400002053756363657373004E6F7420B5
S11329D06F776E6572004E6F207375636820666949
S11329E06C65206F72206469726563746F7279001C
S11329F04E6F20737563682070726F636573730024
S1132A00496E746572727570746564207379737439
S1132A10656D2063616C6C00492F4F206572726F85
S1132A2072004E6F20737563682064657669636510
S1132A30206F722061646472657373004172672051
S1132A406C69737420746F6F206C6F6E67004578C7
S1132A50656320666F726D6174206572726F7200B7
S1132A60536F636B657420616C7265616479206374
S1132A706F6E6E6563746564004261642066696CA0
S1132A8065206E756D626572004E6F206368696CB7
S1132A906472656E0044657374696E6174696F6E07
S1132AA020616464726573732072657175697265FF
S1132AB064004E6F206D6F72652070726F63657372
S1132AC0736573004E6F7420656E6F75676820734D
S1132AD070616365005065726D697373696F6E2010
S1132AE064656E6965640042616420616464726552
S1132AF0737300446576696365206F722072657331
S1132B006F7572636520627573790046696C652020
S1132B106578697374730043726F73732D6465769B
S1132B20696365206C696E6B004E6F207375636812
S1132B3020646576696365004E6F74206120646962
S1132B40726563746F727900486F737420697320BF
S1132B50646F776E00436F6E6E656374696F6E2089
S1132B60616C726561647920696E2070726F67723E
S1132B706573730049732061206469726563746FBF
S1132B80727900496E76616C696420617267756D53
S1132B90656E74004E6574776F726B20696E746530
S1132BA07266616365206973206E6F7420636F6E53
S1132BB06669677572656400436F6E6E65637469F8
S1132BC06F6E2061626F72746564206279206E6535
S1132BD074776F726B00546F6F206D616E79206F24
S1132BE070656E2066696C657320696E20737973F5
S1132BF074656D0046696C65206465736372697001
S1132C00746F722076616C756520746F6F206C61CF
S1132C10726765004E6F742061206368617261633E
S1132C207465722064657669636500546578742000
S1132C3066696C6520627573790046696C652074F9
S1132C406F6F206C6172676500486F7374206973DD
S1132C5020756E726561636861626C65004E6F20F9
S1132C607370616365206C656674206F6E206465A3
S1132C7076696365004E6F7420737570706F72743B
S1132C80656400496C6C6567616C207365656B00F5
S1132C90526561642D6F6E6C792066696C65207372
S1132CA0797374656D00546F6F206D616E79206C5B
S1132CB0696E6B730042726F6B656E20706970652C
S1132CC0004D617468656D61746963732061726736
S1132CD0756D656E74206F7574206F6620646F6DFA
S1132CE061696E206F662066756E6374696F6E002D
S1132CF0526573756C7420746F6F206C61726765B4
S1132D00004E6F206D657373616765206F66206484
S1132D106573697265642074797065004964656ED1
S1132D207469666965722072656D6F7665640049C1
S1132D306C6C6567616C206279746520736571756C
S1132D40656E636500446561646C6F636B004E651A
S1132D5074776F726B20697320756E726561636836
S1132D6061626C65004E6F206C6F636B004E6F7414
S1132D7020612073747265616D0053747265616DB6
S1132D8020696F63746C2074696D656F7574004E8F
S1132D906F2073747265616D207265736F757263F1
S1132DA06573005669727475616C2063697263752A
S1132DB0697420697320676F6E650050726F746F59
S1132DC0636F6C206572726F7200556E6B6E6F77F5
S1132DD06E2070726F746F636F6C004D756C7469E4
S1132DE0686F7020617474656D707465640042610D
S1132DF064206D6573736167650046756E637469FD
S1132E006F6E206E6F7420696D706C656D656E7485
S1132E106564004469726563746F7279206E6F74BF
S1132E2020656D7074790046696C65206F7220703E
S1132E30617468206E616D6520746F6F206C6F6EB5
S1132E406700546F6F206D616E792073796D626FC6
S1132E506C6963206C696E6B73004E6F20627566DB
S1132E6066657220737061636520617661696C6167
S1132E70626C65004E6F2064617461004164647229
S1132E806573732066616D696C79206E6F7420734D
S1132E907570706F727465642062792070726F74DB
S1132EA06F636F6C2066616D696C790050726F742A
S1132EB06F636F6C2077726F6E6720747970652012
S1132EC0666F7220736F636B657400536F636B6519
S1132ED074206F7065726174696F6E206F6E206EFE
S1132EE06F6E2D736F636B65740050726F746F63D4
S1132EF06F6C206E6F7420617661696C61626C65C1
S1132F0000436F6E6E656374696F6E2072656675DB
S1132F1073656400436F6E6E656374696F6E2072CF
S1132F20657365742062792070656572004164641C
S1132F307265737320616C726561647920696E20B7
S1132F407573650041646472657373206E6F7420D9
S1132F50617661696C61626C6500536F6674776158
S1132F6072652063617573656420636F6E6E65635B
S1132F7074696F6E2061626F727400536F636B6566
S1132F8074206973206E6F7420636F6E6E65637452
S1132F90656400536F636B657420697320616C72A0
S1132FA06561647920636F6E6E6563746564004F58
S1132FB07065726174696F6E2063616E63656C65C0
S1132FC064005374617465206E6F74207265636F5E
S1132FD076657261626C650050726576696F7573AF
S1132FE0206F776E65722064696564004F70657246
S1132FF06174696F6E206E6F7420737570706F7278
S1133000746564206F6E20736F636B657400566122
S11330106C756520746F6F206C6172676520666FD4
S11330207220646566696E656420646174612074ED
S1133030797065004D65737361676520746F6F20E7
S11330406C6F6E6700436F6E6E656374696F6E209C
S113305074696D6564206F757400000000000000E1
S1133060000000000000000000000000000000005C
S1133070000000000000000000000000000000004C
S1133080000000000000000000000000000000003C
S1133090000000000000000000000000000000002C
S11330A0000000000000000000000000000000001C
S11330B0000000000000000000000000232D302B61
S11330C02000686C4C006566674546470030313225
S11330D0333435363738394142434445460030317C
S11330E032333435363738396162636465660000DB
S11330F0F8B500BFF8BC08BC9E46704789020000C2
S1133100F8B500BFF8BC08BC9E46704765020000D5
S113311004000020000000007C3000009C3000000F
S11331205C3000000000000000000000000000000F
S1133130000000000000000000000000000000008B
S1133140000000000000000000000000000000007B
S1133150000000000000000000000000000000006B
S1133160000000000000000000000000000000005B
S10731700000000057
S9030000FC
